:0E0000000C947E000C9400000C9400000C94F4
:10000E0000000C9400000C9400000C9400000C9462
:10001E0000000C9400000C9400000C9400000C9452
:10002E0000000C9400000C9400000C9400000C9442
:10003E0000000C9400000C9400000C9400000C9432
:10004E0000000C9400000C9400000C9400000C9422
:10005E0000000C9400000C9400001027E8036400CC
:10006E000A00010000100001100001005745415424
:10007E00484552004D4F4E49544F52494E47004C41
:10008E00494748543A0054454D50455241545552F3
:10009E00453A004252494748542053554E4C494721
:1000AE00485400484F5420434C494D41544500524A
:1000BE0041494E20414C4552540080C00800000377
:1000CE007A000B0008038200070013038D000D0059
:1000DE001A03940010002703A1000C003703B1008F
:1000EE000B004303BD0002004E03C8000000F8944D
:1000FE00EE27EFBBF1E0F5BFE5BF8DE0A2E0BB2739
:10010E00ED938A95E9F780E098E0A0E0B1E0ED93F9
:10011E000197E9F7EAECF0E085919591009761F08F
:10012E00A591B59105901590BF01F00105900D9226
:10013E000197E1F7FB01F0CFE0E0EEBBEFEFEDBF93
:10014E00E8E0EEBFC0E0D3E00C940601AA93E8818C
:10015E00E06CE0937C008BE18A95F1F7E0917A00F8
:10016E00E064E0937A00E0917A00E071E1F3E091CF
:10017E007A00E061E0937A00E0917800F0917900E6
:10018E000C945902BA93AA9321970E94C102AF818F
:10019E00B885EAE0F0E00E948A028F01AF81B8854F
:1001AE00EAE0F0E00E94A2023E2FD801EAE0F0E081
:1001BE000E94A2022E2FD801EAE0F0E00E948A02ED
:1001CE005E2FA52FBB27EAE0F0E00E94A5024E2F7E
:1001DE00A52FB0E0EAE0F0E00E949D02EE83AE8132
:1001EE00A05D0DD1A42FA05D0AD1A22FA05D07D1D5
:1001FE00A32FA05D04D10E94C80229960895E0E8BD
:10020E00E0936100E0E0E0936100E4E0E4B9E0E057
:10021E00E5B9E7B9E8B9E4E0EAB9E2E1EBB9E0E063
:10022E00E4BDE5BDE6BDE7BDE8BDE0938000E0932B
:10023E008100E0938500E0938400E0938700E093D3
:10024E008600E0938900E0938800E0938B00E093B2
:10025E008A00E093B600E093B000E093B100E09323
:10026E00B200E093B300E093B400E0936E00E0932D
:10027E006F00E0937000E0936900EDBBE0936800BF
:10028E00E093C000E8E1E093C100E6E0E093C20035
:10029E00E0E0E093C500E3E3E093C400E0E8E0BFF4
:1002AE00E0E0E0937F00E0937E00E0ECE0937C00E2
:1002BE00E3E8E0937A00E0E0E0937B00ECBDE093AE
:1002CE00BC005A98A0E1C1D00E945B02A0E0B3E04E
:1002DE00ABD0E0E0EA93A1E079D0A8E0B3E00E94D1
:1002EE006002A5E033DFDF01E9E1F0E00E948A025F
:1002FE003E2E4F2E0E945B02A3E1B3E00E946802E5
:10030E00A4E024DFDF01E5E0F0E00E948A025E2E29
:10031E006F2EE0E0EA93A1E059D0AAE1B3E00E948B
:10032E0068022A98E2E3F0E0E515F6053CF42A9A15
:10033E000E945B02A7E2B3E00E946002E6E2F0E0F8
:10034E00E315F4053CF42A9A0E945B02A7E3B3E09E
:10035E000E9460024C9907C05A9A0E945B02A3E465
:10036E00B3E00E946002BDCFFFCFAA93E881E07197
:10037E0011F05D9A01C05D98E881E07211F05E9A0D
:10038E0001C05E98E881E07411F05F9A01C05F9839
:10039E00E881E07811F0289A01C028988DE08A95BE
:1003AE00F1F7429A8DE08A95F1F742988DE08A95A1
:1003BE00F1F778C0AA93A881D8DFE881E295E883A7
:1003CE00A881D3DF85E88A95F1F76CC0AA93E881FE
:1003DE00F0E0E25BFC4FE081A981AE0FEBDFA9807C
:1003EE00988022960895A2E00E946E02ACE0E2DFB1
:1003FE00A1E00E946E02E0E09E2EAE2E0895AA931A
:10040E00A881AA3011F0AC1448F0E0E0EA9393947E
:10041E00A92DDCDFA881AA3009F444C0A394409A28
:10042E00A881C8DF40983EC0BA93AA931A93A981B7
:10043E00BA81ED91A983BA831E2FE03019F0A12F56
:10044E00DEDFF5CF188123960895AA93559A569A12
:10045E00579A209A3A9A389A399A429840984198DF
:10046E00C880E881E058E0935003E881E054E093BF
:10047E005103A4E1B0E00E947C020E9474020E942B
:10048E0074020E947402A0E270DF88EC90E0019783
:10049E00F1F7A8E28FDFA4E08DDFA5E88BDFA6E001
:1004AE0089DFA1DF21960895E0E0EA93A0E00C94A5
:1004BE00ED010E941B02A0EDB7E00E947C020C949D
:1004CE00FA010E941B02A32DB42D0C94C9000E94A8
:1004DE00E101A3E0B0E00C947C02A0E30E94BC0119
:1004EE0088EC90E00197F1F70895109639F080EDC1
:1004FE0097E00197F1F7A8951197C9F70895F1952F
:10050E00E195F04008950024112490E1AA0FBB1F3D
:10051E00001C111C0E1A1F0A18F40E0E1F1E01C00D
:10052E00A1609A9599F7FD01D001089515D0EBDFE2
:10053E000EF4E5DF0895E7DFFD010895E894B7FFB7
:10054E0004C0A095B09511966894F7FDD8DFDBDF57
:10055E00FD010EF4D4DF0895E894F7FF02C0CFDF5B
:10056E006894B7FF06C0A095B095119600F8039455
:10057E0000FA08955A934A933A932A931A930A9338
:10058E0008955D814C813B812A81198108810895EE
:00000001FF
PK 
     .S–TŽ«µ>Û  Û                   pro.hex.hexPK      9       